:100000000C942E010C9456010C9456010C9456013C
:100010000C9456010C9456010C9456010C94560104
:100020000C9456010C9456010C94CD100C947C0F3A
:100030000C9456010C9456010C9456010C945601E4
:100040000C9456010C9456010C9456010C945601D4
:100050000C9456010C9456010C9456010C94F61114
:100060000C9456010C94830C0C94C60C0C94560101
:100070000C9456010C9456010C9456010C945601A4
:100080000C9456010C9456010C9456010C94560194
:100090000C9456010C9456010C9456010C94560184
:1000A0000C9456010C9456010C94560100C18081A9
:1000B000C11201000202000040412336800001010C
:1000C00002000112010002000000404123368000BE
:1000D000010102000118034100720064007500690B
:1000E000006E006F0020004C004C004300220341D2
:1000F0000072006400750069006E006F0020004C03
:100100000065006F006E006100720064006F000403
:1001100003090400000000000000002A2B28000052
:1001200000000000000000000000000000000000CF
:100130000000002C9EB4A0A1A2A434A6A7A5AE36B0
:100140002D3738271E1F20212223242526B333B61E
:100150002EB7B89F8485868788898A8B8C8D8E8FF1
:10016000909192939495969798999A9B9C9D2F31F4
:1001700030A3AD350405060708090A0B0C0D0E0F58
:10018000101112131415161718191A1B1C1DAFB1D4
:10019000B0B50009040200010300000009210101BB
:1001A00000012265000705840340000105010902E2
:1001B000A1010901A1008501050919012903150003
:1001C00025019503750181029501750581030501DE
:1001D0000930093109381581257F75089503810695
:1001E000C0C005010906A1018502050719E029E73C
:1001F0001500250175019508810295017508810397
:100200009506750815002565050719002965810003
:10021000C0080B00020202010009040000010202F2
:100220000000052400100105240101010424020638
:1002300005240600010705810310004009040100A0
:10024000020A0000000705020240000007058302C1
:10025000400000003A0B840D17141A1511241FBE1C
:10026000CFEFDAE0DEBFCDBF12E0A0E0B1E0E8E220
:10027000FEE202C005900D92A03EB107D9F728E03A
:10028000A0EEB2E001C01D92AF3BB207E1F711E072
:10029000CEE2D1E004C02197FE010E94F416CA32DA
:1002A000D107C9F70E94E10D0C9412170C940000BD
:1002B000DC01FB0112968C911297808313968C912E
:1002C0001397818314968C911497828315968C9141
:1002D0001597838316968C911697848317968C9125
:1002E0001797858318968C911897868319968C9109
:1002F000878388E090E00895FC01DB014C9150E099
:1003000060E070E0428353836483758311968C911F
:100310001197582B428353836483758312968C9173
:100320001297682B428353836483758313968C9151
:100330001397782B428353836483758314964C916F
:10034000149750E060E070E04683578360877187C0
:1003500015968C911597582B468357836087718724
:1003600016968C911697682B468357836087718702
:1003700017968C91782B468357836087718788E026
:1003800090E008958DE191E008958BE291E0089569
:100390008CE491E0089585E691E0089586E891E087
:1003A000089589E991E008958DE492E008958AEB3B
:1003B00091E008958BED91E008958BEE91E0089522
:1003C000FC01EA57FB4F80810895A5E0B0E0EBEE19
:1003D000F1E00C94B1168C016B01643671053CF0B0
:1003E000FC01EA57FB4F8081882309F478C0DA01C9
:1003F000ED91FC910190F081E02DB801615E7D4F9F
:10040000CA0109957801B8EEEB1ABDEFFB0A2FEF90
:10041000F70120832EEF3196208331968083319629
:1004200090833196292F280F209520833196C08202
:10043000D801A25EBD4FDC9245E050E020E030E004
:10044000BC016A5F7F4F6417750734F0A1912A0FD2
:10045000311D4F5F5F4FF7CF6C01F8E0CF0ED11C1D
:10046000800F911FFC01E15EFD4F2095208321E06C
:10047000C21622E0D206CCF45701C5018E199F099D
:100480008C159D0584F4D80112968D919C9113973B
:10049000F50161915F01DC01ED91FC910190F0812A
:1004A000E02D0995EACFC6011CC085E892E09A8349
:1004B000898383E08B838CE092E09D838C83D801D9
:1004C000ED91FC910190F081E02DAE014F5F5F4F07
:1004D00067E070E0C80109958FEF9FEF02C080E0F0
:1004E00090E02596EAE00C94CD164091F2025091EE
:1004F000F3026091F4027091F5028091F002909104
:10050000F1020E94010D10926B0710926A0710927F
:100510006D0710926C07109271071092700710927D
:100520006F0710926E07E6E0F7E080E090E021911F
:100530003191232BB1F4FC01EE0FFF1FEA5FF84F5E
:1005400020EE32E03183208383589F4F9093E50261
:100550008093E4028EEE92E09093E7028093E602AD
:10056000089501968931910511F70895CF92DF9290
:10057000EF92FF9220E030E06A017B01022E04C07E
:10058000F694E794D794C7940A94D2F7FC01C192E9
:10059000CF01285F3F4F2032310571F7FF90EF9078
:1005A000DF90CF900895EF92FF920F931F93CF9318
:1005B000DF937C018B01DC011296ED91FC91139786
:1005C000EF0109900020E9F72197CE1BDF0BAE0168
:1005D00060E070E0C8010E94B602F7016281738199
:1005E000AE01C80104960E940917CE010496CDB74A
:1005F000DEB7E6E00C94D1164F925F926F927F9235
:10060000AF92BF92CF92DF92EF92FF920F931F9320
:10061000CF93DF93EC017B018A81FB0180838B8187
:1006200081838C8182838D818383DB01179640E0F7
:1006300050E0BA01E4E0F0E04A805B806C807D80AD
:100640008F010C5F1F4F4415550566057705C0F4F3
:100650008A859B85E80FF91F3497D080218192818C
:100660008381FD013397D082319620833196908328
:100670008C93F8014F5F5F4F6F4F7F4F1496DCCF25
:10068000EE0DFF1D8C8580838D8581838E85828311
:100690008F85838380E090E040E050E0BA014C8495
:1006A0005D846E847F84F701E00FF11F0C5F1F4FA4
:1006B0004415550566057705B8F4AC89BD89A80FC2
:1006C000B91FCC901196DC90119712963C9112971D
:1006D00013962C91C082D182328323834F5F5F4F68
:1006E0006F4F7F4F0496DBCF8E8980838F89818304
:1006F000888D8283898D8383412C512C32018E8990
:100700009F89A88DB98D481659066A067B0680F523
:100710005201AA0CBB1CEC8DFD8DEA0DFB1DA081C6
:10072000B181FD0101900020E9F731976F01CA1AEC
:10073000DB0AA60160E070E0C701800F911F0E94F4
:10074000B6020C5F1F4F8C8D9D8DFC01EA0DFB1DC9
:1007500060817181A601C701800F911F0E94091756
:100760000C0D1D1DFFEF4F1A5F0A6F0A7F0AC7CFDE
:10077000C801DF91CF911F910F91FF90EF90DF9013
:10078000CF90BF90AF907F906F905F904F90089503
:10079000EF92FF920F931F93CF93DF938C017B0116
:1007A000EC018A81FB018193AB81BC81ED01099051
:1007B0000020E9F72197CA1BDB0BAE0160E070E077
:1007C000CF010E94B602F80163817481AE01C701B6
:1007D00005960E940917CE010596CDB7DEB7E6E073
:1007E0000C94D116A0E0B0E0E8EFF3E00C94B3165F
:1007F0006C01EB01FC018281888383818983A48160
:10080000B581FD0101900020E9F731978F010A1BA6
:100810001B0BA80160E070E0CE0102960E94B602B8
:10082000F60164817581A801CE0106960E94091720
:10083000C8010696F601A681B781FD01019000204E
:10084000E9F731977F01EA1AFB0AA70160E070E03F
:100850008C0F9D1F0E94B602065F1F4FF601668136
:100860007781A701CE01800F911F0E9409170E0DFD
:100870001F1DF601A085B185FD0101900020E9F75B
:1008800031977F01EA1AFB0AA70160E070E0CE0110
:10089000800F911F0E94B6020C5F1F4FF60160850A
:1008A0007185A701CE01800F911F0E940917C80111
:1008B0008E0D9F1DF6016285438534852585C80F01
:1008C000D91F688349833A832B830496CDB7DEB75B
:1008D000E8E00C94CF16CF92DF92EF92FF92FC01EA
:1008E0001082118212821382DB0120E030E04D91F0
:1008F00050E0022E02C0440F551F0A94E2F7052E65
:10090000000C660B770BC080D180E280F3804C290D
:100910005D296E297F294083518362837383285F19
:100920003F4F2032310519F7FF90EF90DF90CF90C5
:100930000895A4E0B0E0EFE9F4E00C94AF167C0178
:100940008B01FB018191BF01F7018283CE010196EA
:100950000E946B0489819A81AB81BC814C015D014D
:10096000F5E08F0E911CA11CB11C680125E0C20EA0
:10097000D11CA601401B510B60E070E048155905E1
:100980006A057B0548F4F60141916F019F012250F1
:100990003109F9014083EDCFF801E80FF91F148206
:1009A0000C5F1F4FF7011483038305962496ECE038
:1009B0000C94CB16ACE0B0E0E0EEF4E00C94AB1697
:1009C0007C018B01DB018C9190E0F70193838283A2
:1009D00011962C91922B938382836E5F7F4FCE0171
:1009E00009960E946B0489849A84AB84BC84B50107
:1009F000A4014A5F5F4F6F4F7F4FF8013696CF01DA
:100A0000801B910BA0E0B0E084179507A607B707FD
:100A100028F48191DF0112978C93F1CFF801E80D52
:100A2000F91D1582C8010596D70115969C938E93E2
:100A30001497B4016A5F7F4F600F711FCE01059656
:100A40000E946B04BAE08B0E911C4D815E816F8118
:100A500078852401092C000C66087708440E551E81
:100A6000661E771EF801E80DF91DCF01801B910B62
:100A7000A0E0B0E084159505A605B70528F481919E
:100A8000DF0112978C93F1CF6401C40ED51EB8011B
:100A90006C0D7D1DFB0131971082C4010197800F01
:100AA000911FF70197838683CE0101960E946B0404
:100AB000A6014C5F5F4F49805A806B807C804A0161
:100AC000052E000CAA08BB08840C951CA61CB71C9C
:100AD000F801E40FF51F9F01201B310BC901A0E0B5
:100AE000B0E088159905AA05BB0528F48191DF01BE
:100AF00012978C93F0CFCA01840D951DF801E80F71
:100B0000F91FDF0111971C929A0121503109020F40
:100B1000131FD70119961C930E93189721814281B8
:100B200050E060E070E0BA0155274427522B208145
:100B3000422B2381722BF701428753876487758785
:100B400004962C96E0E10C94C716A8E0B0E0EBEA1E
:100B5000F5E00C94A9168C015B01DB018C911196D8
:100B60009C9111971296CC901297D12CE12CF12CDC
:100B70007601DD24CC24D92AC82A13968C91F82A30
:100B8000F80182819381A481B5818C159D05AE0504
:100B9000BF0570F4B601660F771F660F771F828559
:100BA00093850E942C11D8011B969C938E931A97C3
:100BB000F801C282D382E482F582D5011796C12C56
:100BC000D12C7601F4E08F2E912C98012A5F3F4FB3
:100BD000F8014281538164817581C4010496C41671
:100BE000D506E606F70680F54C9150E060E070E02F
:100BF000742F662755274427FD013397E0814E2B3C
:100C0000FD013297E0815E2BFD013197E0816E2B73
:100C1000F80146835783608771874C0108974285A6
:100C20005385840F951FF901408151816281738141
:100C3000FC014083518362837383FFEFCF1ADF0A85
:100C4000EF0AFF0A1496C4CFF401EA0DFB1D2081C0
:100C50003181C280D12CE12CF12C7601DD24CC2411
:100C6000D32AC22A2381F22A4C01F8018485958572
:100C7000A685B7858C159D05AE05BF0570F4B60138
:100C8000660F771F660F771F848995890E942C1144
:100C9000D80155969C938E935497F801C486D586B7
:100CA000E686F78620E030E0C12CD12C7601D80111
:100CB0005096F8014485558566857785F501E80DE0
:100CC000F91DC4010496C416D506E606F70648F5D4
:100CD0009180428150E060E070E0BA0155274427DE
:100CE000592990804929E3817E2BF801408B518B53
:100CF000628B738B4C0184899589FC01E20FF31F91
:100D00004D915D916D917C911397408351836283E6
:100D10007383FFEFCF1ADF0AEF0AFF0A2C5F3F4F02
:100D2000C8CF20813181C280D12CE12CF12C7601F9
:100D3000DD24CC24D32AC22A2381F22A4C01F801D3
:100D400086899789A08DB18D8C159D05AE05BF054F
:100D500060F4B601660F771F848D958D0E942C116B
:100D6000D8015D969C938E935C97F801C68AD78ACA
:100D7000E08EF18E412C512C32011801FAE12F0E38
:100D8000311CF80186899789A08DB18D48165906C6
:100D90006A067B0608F05AC0B501680D791DCE01C0
:100DA00001960E946B0494012C5F3F4FC980DA804A
:100DB000EB80FC80C901032E000CAA0BBB0BAC011D
:100DC000BD014C0D5D1D6E1D7F1D4D835E836F83C8
:100DD0007887F501E20FF31FAF014A195B09CA01D9
:100DE000A0E0B0E04D815E816F8178858417950722
:100DF000A607B70728F44191DF0112974C93ECCF77
:100E0000C9018C0D9D1DF501E80FF91F3197108266
:100E1000215031092A0D3B1DD8015B963C932E933E
:100E20005A974C01C201880F991F5C96ED91FC9175
:100E30005D97E80FF91FD1018D919C91918380837B
:100E4000BFEF4B1A5B0A6B0A7B0A9BCFC401289643
:100E5000E2E10C94C516A4E0B0E0E1E3F7E00C9405
:100E6000AF167C018B01CE0101960E946B04898133
:100E70009A81AB81BC814C015D0124E0820E911C02
:100E8000A11CB11C6801E4E0CE0ED11CA601401BE0
:100E9000510B60E070E0481559056A057B0548F480
:100EA000F60141916F019F0122503109F901408300
:100EB000EDCFF801E80FF91F13820D5F1F4FF70107
:100EC0001383028304962496ECE00C94CB16AAE0DC
:100ED000B0E0EDE6F7E00C94B7168C018DE692E0F9
:100EE0009A8389831B821C821D821E821F82188620
:100EF00019861A86D801ED91FC910190F081E02DC0
:100F0000AE014F5F5F4F6AE070E0C80109950E9433
:100F10004012F80160877187828793872A96E4E000
:100F20000C94D3164F925F926F927F92AF92BF92C2
:100F3000CF92DF92EF92FF920F931F93CF93DF93A5
:100F4000CDB7DEB72E970FB6F894DEBF0FBECDBF7C
:100F50008C0189E792E09A8389831C821B8284E456
:100F600092E09E838D8398878F839A8789871B86DB
:100F70001C861D861E86680188EEC81A8BEFD80A6B
:100F80007801A6EBEA1AABEFFA0A412C92E0592E4F
:100F9000612C712CD601ED91FC913097B9F18481CF
:100FA00095819C838B83808191819E838D838281B7
:100FB0009381DC01ED91FC910480F581E02D099590
:100FC00098878F83D601ED91FC9182819381DC011A
:100FD000ED91FC910680F781E02D09959A8789872C
:100FE0004B865C866D867E86F80180819181F60154
:100FF000A081B18118966D917C911997DC01ED91DA
:10100000FC91AE014F5F5F4FC8010995B2E0CB0E76
:10101000D11CCE14DF0409F0BDCF6801E4E8CE1A7C
:10102000EBEFDE0A412C82E0582E612C712CF70187
:10103000A081B1811097E1F112968D919C91139747
:101040009C838B8314968D919C9115979E838D83A1
:10105000ED91FC9111970480F581E02DCD0109956A
:1010600098878F83D7018D919C91DC01ED91FC9144
:101070000680F781E02D09959A8789874B865C86E3
:101080006D867E86D801ED91FC91A080B180F7013C
:1010900080819181DC01ED91FC910280F381E02D52
:1010A0000995AE014F5F5F4FBC01C801F50109957D
:1010B000F2E0EF0EF11CEC14FD0409F0B8CFF801DA
:1010C000EA57FB4F81E080832E960FB6F894DEBF7F
:1010D0000FBECDBFDF91CF911F910F91FF90EF9089
:1010E000DF90CF90BF90AF907F906F905F904F90C8
:1010F0000895AAE0B0E0EFE7F8E00C94AF168C0199
:101100005B018DE692E09A8389831B821C821D829B
:101110001E821F82188619861A860E944012F801C4
:10112000C084D184E284F3849B01AC012C193D0975
:101130004E095F0969017A01B501CE0101960E944D
:101140007C0188EE882E83E0982EA12CB12CC7015B
:10115000B601A50194010E947C16CB80DC80ED8055
:10116000FE80C20ED31EE41EF51ECB82DC82ED8211
:10117000FE829B01AC0160E472E48FE090E00E948B
:101180005816CF80D884E984FA84DC01CB018C0D19
:101190009D1DAE1DBF1D8F839887A987BA870E94AA
:1011A0004012CB80DC80ED80FE8031E0C31AD10894
:1011B000E108F108A50194010E947C16C21AD30A25
:1011C000E40AF50AF801C486D586E686F786CF805C
:1011D000D884E984FA84F6E3DF1AF5E6EF0AF4EC42
:1011E000FF0A9B01AC0160E472E48FE090E00E9492
:1011F0005816C61AD70AE80AF90AF801C08AD18A2D
:10120000E28AF38AB801605F7F4FC8010C960E94A2
:10121000C10B0E944012F801E557FB4F60837183B8
:10122000828393832A96ECE00C94CB16A0E1B0E085
:10123000ECE1F9E00C94A916988B8F870E9440127C
:101240004B015C012F85388925573B4F3E832D8309
:10125000F90180819181A281B381A5019401281BAC
:10126000390B4A0B5B0BDA01C901893F9A42A10590
:10127000B10528F0EF85F889EA57FB4F10820F85FA
:10128000188904581B4FD8018D919C91892B81F0AE
:10129000EF85F889E157FB4F80819181A281B3816D
:1012A00088159905AA05BB0518F4F801118210826A
:1012B0006F847888FCE76F1AFBEF7F0A2F853889E7
:1012C00020583B4F3A832983CF84D88838E1C30E16
:1012D000D11C4F8558894A575B4F58874F832F85BC
:1012E00038892C563B4F3A8729874F8558894D5668
:1012F0005B4F5C874B87EF84F88852E8E51A5BEF19
:10130000F50A2F8538892E573B4F3C832B834F8519
:10131000588941575B4F5E874D871401250154E181
:10132000250E311C411C511CEF85F8898489958953
:10133000A689B789892B8A2B8B2B89F4AF85B8892D
:1013400012968D919C911397DC01ED91FC91068092
:10135000F781E02D09959C0197FF15C037C10E94C8
:101360004012DC01CB0188199909AA09BB09EF8554
:10137000F8892489358946895789281739074A0702
:101380005B07E0F64BC1D3018D919C911197820FC1
:10139000931F8D939C93F8014081518147305105F3
:1013A000D9F4AB81BC818D919C911197AC014F5FB9
:1013B0005F4F4D935C93EF85F889E80FF91F208FFD
:1013C000F70180819181019791838083892B09F0B6
:1013D000ABCF88E090E02FC04115510521F52F3F9C
:1013E000310569F481E090E0F80191838083AD8557
:1013F000BE852D923D924D925C92139795CF0E949F
:101400004012DC01CB0188199909AA09BB09893866
:101410009341A105B10508F487CFEF85F889EA5714
:10142000FB4F1082FBC041305105B1F42E3F310516
:1014300031F482E090E0D8018D939C9375CFF80150
:1014400011821082AF81B8858C9181116DCF8F850B
:1014500098890E94670768CF4230510569F4F70107
:1014600031832083AB81BC811D921C9283E090E08C
:10147000F801918380832EC04330510561F4322FEF
:101480002227F70180819181280F391F3183208322
:1014900084E090E0D0CF4430510581F460E071E009
:1014A0000E9468168F3F910531F485E090E0F801C5
:1014B0009183808339CF1182108236CF4530510518
:1014C00069F4E981FA8131832083E6E0F0E0D80114
:1014D000ED93FC93D3012D933C9326CF46305105D9
:1014E00099F4322F2227E981FA8180819181280F96
:1014F000391F31832083E7E0F0E0D801ED93FC93BE
:10150000D7018D919C9162CF4830510509F00CCFE5
:10151000F8011182108260E071E00E9468168F3F2E
:10152000910509F001CFA981BA818D919C91009715
:10153000C9F48F8598890E9467078F8598890E94D2
:101540009207EF85F889E957FB4F80829182A2824A
:10155000B382ED81FE8180829182A282B3828FEF7D
:101560009FEF61C08A30910531F4B6018F8598896B
:101570000E947908D9CE8630910551F4B60189854B
:101580009A850E94A50581E0AB85BC858C93CCCE65
:101590008B30910521F4EF81F8851082C5CEFC01D6
:1015A000EF53FE4FEE0FFF1F2F853889E20FF31F19
:1015B00080819181009709F4B7CEDC01ED91FC9117
:1015C0000190F081E02DB6010995AECEEF85F88946
:1015D000EA57FB4F8081882321F10F85188909572D
:1015E0001B4FF80180819181A281B381A5019401F3
:1015F000281B390B4A0B5B0BDA01C901853C99406A
:10160000A105B10570F08F8598890E946707D80100
:101610008D929D92AD92BC92139703C08EEF9FEF77
:1016200002C080E090E06096E2E10C94C516CF9392
:10163000DF9380E091E09093ED028093EC02E0EE86
:10164000F2E086819781EC01A881B981648175817E
:10165000ED91FC914AEE52E009958EEE92E00E94E7
:10166000160968EE73E080E090E00E947112DF914D
:10167000CF91089589EA92E09093EF028093EE0271
:1016800080EA97E09093F1028093F00280E091EE7F
:10169000A0E0B0E08093F2029093F302A093F402F2
:1016A000B093F5021092740781E992E0909383075A
:1016B0008093820710928407109285071092860704
:1016C0001092870710928D0710928C0710928E0748
:1016D00010928F071092900710929107109297071F
:1016E00010929607109298071092990710929A07F5
:1016F00010929B0710929F0710929E07E6E0F7E07A
:101700001192119287E0E833F807D1F7E8E3F7E0A8
:101710001192119287E0EA36F807D1F7E6E0F3E09C
:10172000119285E0E630F807D9F7E6E0F5E011928E
:1017300087E0E630F807D9F710920203109203030E
:1017400010920403109205038DE992E09093EB024E
:101750008093EA0284E492E09093ED028093EC029D
:1017600085E492E09093E1028093E0028AEE92E0B9
:101770009093E3028093E2021092E9021092E80251
:101780000895A0E0B0E0E7ECFBE00C94B3168C0108
:10179000EB01688179818A819B8120E03AEC4AE9FA
:1017A0005BE30E947C16F801C080D180E280F38068
:1017B000C20ED31EE41EF51EC082D182E282F382E5
:1017C000688379838A839B83CDB7DEB7E8E00C9486
:1017D000CF16FC0124853585F901E05CFF4F80813F
:1017E0009181329620813181821B930B8F739927CF
:1017F0000895DC011C96ED91FC911D97DF01A05C22
:10180000BF4F2D913C91119712968D919C911197FC
:101810002817390739F08D919C91E80FF91F8081C5
:1018200090E008958FEF9FEF0895FC01A485B585A2
:10183000FD01E05CFF4F20813181329680819181F2
:101840002817390779F080819181A80FB91F8C91F1
:10185000208131812F5F3F4F2F73332731832083C6
:1018600090E008958FEF9FEF0895FC0181A18823F8
:1018700029F0A489B5898C9186FFFBCF11A2089528
:101880000F931F93CF93DF93FC01A685B7858D013E
:10189000005C1F4FE8018881998101968F73992719
:1018A000AD014E5B5F4FEA012881398182179307B2
:1018B000D1F3E80128813981A20FB31F6C93A6856B
:1018C000B785A05CBF4F11969C938E93A689B7896C
:1018D0002C9181E090E0078C02C0880F991F0A9438
:1018E000E2F7822B8C9381E081A30488F589E02DB7
:1018F00080818064808381E090E0DF91CF911F91AF
:101900000F91089508951F920F920FB60F92112410
:101910002F934F935F938F939F93EF93FF938091B8
:10192000C80082FD1CC02091CE0080914608909195
:10193000470801968F7399274091480850914908AC
:101940008417950771F0E0914608F0914708EA5F27
:10195000F74F2083909347088093460802C08091F8
:10196000CE00FF91EF919F918F915F914F912F91B9
:101970000F900FBE0F901F90189580EA97E00E947D
:10198000E90B892B11F00E94820C08951F920F928F
:101990000FB60F9211242F933F938F939F93EF9342
:1019A000FF932091020830910308809104089091E0
:1019B00005082817390731F48091C9008F7D80937D
:1019C000C90014C0E0910408F0910508EE53F84FE7
:1019D0002081809104089091050801968F739927C2
:1019E00090930508809304082093CE00FF91EF9117
:1019F0009F918F913F912F910F900FBE0F901F904D
:101A00001895A0E0B0E0E7E0FDE00C94B316EC011F
:101A10006A017B014115514E6105710511F1EC8997
:101A2000FD8981E090E008A002C0880F991F0A9408
:101A3000E2F7808360E079E08DE390E0A701960112
:101A40000E947C1689019A0101501109210931096E
:101A500036952795179507959801011580E1180788
:101A6000A8F0EC89FD89108260E874E88EE190E0CE
:101A7000A70196010E947C16DA01C9010197A1090C
:101A8000B109B695A795979587959C01E889F9893D
:101A90003083EA89FB89208319A2EE89FF8940817E
:101AA00081E090E09C010C8C02C0220F331F0A944D
:101AB000E2F7242B2083EE89FF8940819C010D8C65
:101AC00002C0220F331F0A94E2F7242B2083EE89F1
:101AD000FF8940819C010E8C02C0220F331F0A94A3
:101AE000E2F7242B2083EE89FF8920810F8C02C02E
:101AF000880F991F0A94E2F7809582238083CDB7DF
:101B0000DEB7E8E00C94CF16E0EAF7E01382128229
:101B100088EE93E0A0E0B0E084839583A683B7834A
:101B200083EB92E09183808386E098E095878487B9
:101B300082EC97E0978786878DEC90E0918B808B85
:101B40008CEC90E0938B828B88EC90E0958B848B6F
:101B500089EC90E0978B868B8AEC90E0918F808F58
:101B60008EEC90E0938F828F84E0848F83E0858F6A
:101B700087E0868F85E0878F81E080A30895A0E0CD
:101B8000B0E0E5ECFDE00C94B3166C01EB017B01D9
:101B9000E40EF51E00E010E0CE15DF0561F069915E
:101BA000D601ED91FC910190F081E02DC6010995DF
:101BB000080F191FF1CFC801CDB7DEB7E8E00C94CC
:101BC000CF160E9497128AE498E00E94AF100E94FC
:101BD0007502CDEBDCE00E94170B2097E1F30E9429
:101BE000BD0CF9CF615030F02091F100FC01208351
:101BF0000196F8CF289884E68093510808952FB76E
:101C0000FC012083F89467706093E9000895A1E0D7
:101C1000B0E0EDE0FEE00C94B916682FCE0101961D
:101C20000E94FF0D8091F20099819FBF2196E2E012
:101C30000C94D516A1E0B0E0E0E2FEE00C94B516FD
:101C400090915008992311F057FF03C08FEF9FEF39
:101C50002AC08A017B01682FCE0101960E94FF0DE8
:101C60008091F20090E0A801801791070CF4AC017C
:101C7000842FF70194E6815038F02898909351080A
:101C80002091F1002193F7CF4115510521F080916A
:101C9000F200882321F089818FBFCA0104C08BE63E
:101CA0008093E800F8CF2196E6E00C94D116A1E0ED
:101CB000B0E0EDE5FEE00C94B91641E050E0BE0165
:101CC0006F5F7F4F0E941A0E019719F4898190E08F
:101CD00002C08FEF9FEF2196E2E00C94D516A1E0B1
:101CE000B0E0E5E7FEE00C94B916682FCE0101964E
:101CF0000E94FF0D9091E800892F807295FF04C02B
:101D00009091F20080E4891B99819FBF2196E2E0C7
:101D10000C94D516A1E0B0E0E0E9FEE00C94AB161F
:101D2000A82E6B01B42E052F80915008882369F0EE
:101D3000E42EF52E8AEF782E8A2D8072582E9AE3A3
:101D4000692E8A2D8074482E12C08FEF9FEF50C0ED
:101D50008A2D0E946F0E182F81110DC07A94772062
:101D6000A1F361E070E080E090E00E947112E11464
:101D7000F10471F733C090E0E816F9060CF41E2D5B
:101D8000812E912CE818F9086A2DCE0101960E9447
:101D9000FF0D552029F01150A8F01092F100FBCF53
:101DA000F601A7FE07C0115058F084918093F1000E
:101DB0003196F9CF115020F081918093F100FACF44
:101DC000C80CD91C8091E80085FF0FC0E114F10414
:101DD00011F441100AC089818FBFC9CF5D9884E694
:101DE000809352088B2D902F03C06092E800F3CFB0
:101DF0002196E0E10C94C7161092E90010924F086A
:101E000010924E0890934D0880934C0808950F93BC
:101E10001F93CF93DF93DB01A40FB51FFB016EEF80
:101E2000EA17FB0791F187FF02C0249101C02081CE
:101E300000914E0810914F08C0914C08D0914D0868
:101E40000C171D07B4F49091E8009570E1F39091A0
:101E5000E80092FD1CC02093F10020914E083091C3
:101E60004F082F5F3F4F2F733327232B11F46093BD
:101E7000E80020914E0830914F082F5F3F4F30937C
:101E80004F0820934E083196CBCFCA0102C08FEF86
:101E90009FEFDF91CF911F910F910895A1E0B0E0E6
:101EA000E4E5FFE00C94B816162F2091E80022FF1D
:101EB000FCCF612F79830E94F20D8BEF8093E800B5
:101EC000812F7981972F2196E3E00C94D416A1E01D
:101ED000B0E0EDE6FFE00C94B9161982CE01019650
:101EE0000E94B514CE0101960E940B13898190E0E7
:101EF0002196E2E00C94D5161F920F920FB60F9226
:101F00001124CF92DF92EF92FF921F932F933F9372
:101F10004F935F936F937F938F939F93AF93BF93F1
:101F2000EF93FF93CF93DF93CDB7DEB76197DEBF1B
:101F3000CDBF1092E9008091E80083FFE8C068E01F
:101F4000CE010A960E94F20D82EF8093E8009A85F6
:101F500097FF05C08091E80080FFFCCF03C08EEFA3
:101F60008093E800892F807609F0B6C08B858111B7
:101F700005C01092F1001092F100C2C0282F2D7FF1
:101F8000213009F4BDC0853049F48091E80080FF1C
:101F9000FCCF8C8580688093E300B2C0863009F066
:101FA0006FC01D85E888F988123069F580E090E0FF
:101FB0000E94FC0E0E94670F99E09E012F5F3F4F29
:101FC0006901F901292F11922A95E9F799831A835A
:101FD00091E09E8390E898879AEF998720914E0828
:101FE00030914F08275F3F4F3C832B838D83C70180
:101FF0000E94FC0E49E050E0B60180E00E94070F0D
:102000000E94670F7DC0C7010E94FC0E123241F48E
:1020100082E290E00E941713892B09F071C074C00E
:10202000113069F488899989089711F410934B0845
:1020300080914B08811111C063EC70E016C0133021
:1020400009F062C08C85882359F0823061F08130BC
:1020500009F05AC065ED70E008C061EB70E005C0A2
:102060006FE071E002C06DEE70E06115710509F47A
:102070004BC0FB01449150E080E80E94070F40C034
:10208000873009F441C0883021F481E08093F10069
:1020900037C08930A9F59370B9F580E090E031E060
:1020A00026E341E0480F4093E9003093EB000196AE
:1020B000FC01E455FF4FE491E093EC002093ED0028
:1020C0008430910571F78EE78093EA001092EA0060
:1020D0008C858093500814C0888999890E94FC0ED1
:1020E0008E85811105C0CE010A960E94C11406C0DA
:1020F000823051F4CE010A960E943913882321F0D0
:102100008EEF8093E80003C081E28093EB0061963C
:102110000FB6F894DEBF0FBECDBFDF91CF91FF9118
:10212000EF91BF91AF919F918F917F916F915F914F
:102130004F913F912F911F91FF90EF90DF90CF90A3
:102140000F900FBE0F901F9018958093E90080911B
:10215000F200882319F08AE38093E8000895109232
:10216000500881E08093D70080EA8093D80082E114
:1021700089BD09B400FEFDCF61E070E080E090E031
:102180000E94711280E98093D8008CE08093E20075
:102190001092E000559A209A08951F920F920FB660
:1021A0000F9211242F933F934F935F936F937F93DD
:1021B0008F939F93AF93BF93EF93FF938091E10031
:1021C0001092E10083FF0FC01092E90091E090931C
:1021D000EB001092EC0092E39093ED001092500807
:1021E00098E09093F00082FF26C083E00E94A51043
:1021F00082E00E94070E882321F089E698E00E9481
:10220000691480915208882339F0809152088150D6
:1022100080935208882369F080915108882359F0EF
:1022200080915108815080935108811104C0289AEF
:1022300002C05D9AF1CFFF91EF91BF91AF919F9155
:102240008F917F916F915F914F913F912F910F905F
:102250000FBE0F901F901895A0E0B0E0E2E3F1E10F
:102260000C94AD16EC01009721F4CB010E942B15C4
:10227000B8C0FC01E60FF71F9C0122503109E2179C
:10228000F30708F4ACC0D9010D911C911197061702
:102290001707B0F00530110508F49FC0C801049776
:1022A0008617970708F499C002501109061B170BEF
:1022B000019311936D937C93CF010E94C0158DC043
:1022C0005B01A01AB10A4C01800E911EA091BD08BD
:1022D000B091BE0840E050E0E12CF12C109709F4D9
:1022E0004AC0A815B905D1F56D907C90119763018E
:1022F00082E0C80ED11CCA14DB0480F1A3014A1984
:102300005B096A0182E0C80ED11C1296BC9012973C
:102310001396AC91B5E0CB16D10440F0B282A38302
:1023200051834083D9016D937C930AC00E5F1F4F88
:10233000C301800F911FF90191838083EB2DFA2F48
:10234000E114F10431F0D7011396FC93EE93129748
:1023500044C0F093BE08E093BD083FC08D919C91AE
:1023600011974817590708F4AC017D0112960D909A
:10237000BC91A02DB3CF8091BB089091BC0888156B
:102380009905E1F446175707C8F480911701909119
:102390001801009741F48DB79EB740911B015091F1
:1023A0001C01841B950BE817F907C8F4F093BC08CF
:1023B000E093BB08F901718360830FC0CB010E94D9
:1023C0002B157C01009759F0A801BE010E94091746
:1023D000CE010E94C015C70104C0CE0102C080E03A
:1023E00090E0CDB7DEB7EEE00C94C9161F920F92C5
:1023F0000FB60F9211242F933F938F939F93AF9318
:10240000BF938091540890915508A0915608B091BF
:1024100057083091530823E0230F2D3720F40196FD
:10242000A11DB11D05C026E8230F0296A11DB11DF7
:10243000209353088093540890935508A09356080E
:10244000B09357088091580890915908A0915A0864
:10245000B0915B080196A11DB11D8093580890931F
:102460005908A0935A08B0935B08BF91AF919F9110
:102470008F913F912F910F900FBE0F901F90189545
:102480002FB7F894609154087091550880915608C0
:10249000909157082FBF08953FB7F894809158083E
:1024A00090915908A0915A08B0915B0826B5A89B55
:1024B00005C02F3F19F00196A11DB11D3FBFBA2FD6
:1024C000A92F982F8827820F911DA11DB11DBC0136
:1024D000CD0142E0660F771F881F991F4A95D1F7FB
:1024E0000895CF92DF92EF92FF92CF93DF936B012B
:1024F0007C010E944C12EB01C114D104E104F104EF
:1025000079F00E944C126C1B7D0B683E7340A0F367
:1025100081E0C81AD108E108F108C851DC4FECCFBE
:10252000DF91CF91FF90EF90DF90CF900895789456
:1025300084B5826084BD84B5816084BD85B58260C8
:1025400085BD85B5816085BDEEE6F0E08081816066
:102550008083E1E8F0E01082808182608083808166
:1025600081608083E0E8F0E0808181608083E1E940
:10257000F0E0808182608083808181608083E0E9F7
:10258000F0E0808181608083E1ECF0E08081846014
:102590008083808182608083808181608083E3EC9E
:1025A000F0E0808181608083E0ECF0E080818260F7
:1025B0008083E2ECF0E0808181608083EAE7F0E0F4
:1025C000808184608083808182608083808181605B
:1025D00080838081806880830895EF92FF921F93AB
:1025E000CF93DF93EC01162FE881F9810480F58108
:1025F000E02D09957C01E881F9810680F781E02DC5
:10260000612FCE010995C7019927DF91CF911F91C5
:10261000FF90EF900895FC0190819F5F908349E1C6
:1026200050E063E971E080E80E94070F089545E6F5
:1026300050E06CEA71E080E80E94070F0895A1E085
:10264000B0E0E5E2F3E10C94B51689838B017A01E1
:1026500041E050E0BE016F5F7F4F84E00E948A0E30
:10266000A701B80184E40E948A0E2196E6E00C944A
:10267000D116FC0191818081813A31F481E0913061
:1026800091F0933089F411C0813271F49B3021F4C0
:10269000828180930E0105C09A3031F4828180934B
:1026A0000D0181E00895089580E0089548E050E02C
:1026B00082E00E941F130895DC01683810F068580A
:1026C0002DC0E62FF0E067FF11C0E058F10981E06E
:1026D00090E001C0880FEA95EAF714969C91149750
:1026E000892B14968C93149760E018C0ED5EFE4F12
:1026F0006491611109C081E090E013969C938E93E0
:10270000129780E090E0089567FF08C014968C91BE
:102710001497826014968C9314976F7716968C9109
:102720001697861751F117968C911797861729F1EE
:1027300018968C911897861701F119968C91199714
:102740008617D9F01A968C911A978617B1F01B96B6
:102750008C911B97861789F0FD01369680E090E0FA
:102760002191211105C0FD01E80FF91F668305C005
:10277000019686309105A1F7BECFCD01BD016C5FFA
:102780007F4F0E94561381E090E00895DC01683885
:1027900010F0685825C0E62FF0E067FF12C0E0583F
:1027A000F10981E090E001C0880FEA95EAF7809591
:1027B00014969C911497892314968C93149760E037
:1027C0000FC0ED5EFE4F6491662301F167FF08C004
:1027D00014968C9114978D7F14968C9314976F7721
:1027E000FD01369686E0662321F09081961301C0A4
:1027F0001082815031968111F6CFCD01BD016C5F01
:102800007F4F0E94561381E090E0089580E090E0B1
:102810000895FC011682178210861186128613868F
:102820001482BC016C5F7F4F0E9456130895109272
:102830006808ECE5F8E01382128283EC92E0918361
:10284000808308958091B7089091B8082091B908C5
:102850003091BA08821B930B8F73992708952091AA
:10286000B7083091B8088091B9089091BA08281734
:10287000390749F0E091B908F091BA08E958F74FE3
:10288000808190E008958FEF9FEF08952091B70821
:102890003091B8088091B9089091BA082817390783
:1028A000A9F0E091B908F091BA08E958F74F808192
:1028B0002091B9083091BA082F5F3F4F2F7333270B
:1028C0003093BA082093B90890E008958FEF9FEFF6
:1028D0000895CF93DF93C091B708D091B80821969F
:1028E000CF73DD278091B9089091BA08C817D9072E
:1028F00099F082E00E94570E8F3F2FEF920761F010
:10290000E091B708F091B808E958F74F8083D09369
:10291000B808C093B708DFCFDF91CF91089583E067
:102920000E94A5100895A1E0B0E0E9E9F4E10C945B
:10293000B7168C01698380911601882359F041E014
:1029400050E0BE016F5F7F4F83E00E948A0E181631
:1029500019063CF081E090E0F8019383828380E0E7
:1029600090E02196E4E00C94D316FC0190819E5FE8
:10297000908342E450E061E172E080E80E94070F3A
:102980000895FC0181819081913A59F4813209F0D6
:102990004DC047E050E06FE071E080E00E94070F1B
:1029A00047C0913209F042C0803239F467E070E0EC
:1029B0008FE091E00E944E0F3BC0823209F036C09A
:1029C00082818093160180910F0190911001A09156
:1029D0001101B0911201803B9440A105B10541F570
:1029E0008091160180FD11C087E797E79093010859
:1029F000809300089BE088E10FB6F894A895809337
:102A000060000FBE9093600013C00FB6F894A895B5
:102A100080916000886180936000109260000FBE1A
:102A2000A895109201081092000802C080E0089555
:102A300081E00895E9E6F8E01382128288EE93E0DF
:102A4000A0E0B0E084839583A683B78381ED92E014
:102A5000918380830895CF93DF938230910510F4A2
:102A600082E090E0E091BD08F091BE0820E030E007
:102A7000C0E0D0E0309711F14081518148175907EB
:102A8000C0F04817590761F482819381209719F0AB
:102A90009B838A832BC09093BE088093BD0826C079
:102AA0002115310519F04217530718F49A01BE0198
:102AB000DF01EF010280F381E02DDCCF211531052C
:102AC00009F1281B390B2430310590F412968D91B1
:102AD0009C9113976115710521F0FB01938382830B
:102AE00004C09093BE088093BD08FD01329644C097
:102AF000FD01E20FF31F81939193225031092D9331
:102B00003C933AC02091BB083091BC08232B41F480
:102B10002091190130911A013093BC082093BB0811
:102B200020911701309118012115310541F42DB77D
:102B30003EB740911B0150911C01241B350BE091C5
:102B4000BB08F091BC08E217F307A0F42E1B3F0B63
:102B50002817390778F0AC014E5F5F4F241735070F
:102B600048F04E0F5F1F5093BC084093BB08819301
:102B7000919302C0E0E0F0E0CF01DF91CF910895A2
:102B80000F931F93CF93DF93009709F48CC0FC0140
:102B90003297138212820091BD081091BE08011570
:102BA000110581F420813181820F931F2091BB0890
:102BB0003091BC082817390779F5F093BC08E093E9
:102BC000BB0871C0D80140E050E0AE17BF0750F419
:102BD00012962D913C911397AD012115310509F104
:102BE000D901F3CF9D01DA013383228360817181A2
:102BF000860F971F8217930769F4EC0128813981AA
:102C0000260F371F2E5F3F4F318320838A819B81A0
:102C100093838283452B29F4F093BE08E093BD088B
:102C200042C01396FC93EE931297ED01499159918E
:102C30009E01240F351FE217F30771F48081918103
:102C4000840F951F029611969C938E938281938197
:102C500013969C938E931297E0E0F0E0D8011296C1
:102C60008D919C911397009719F0F8018C01F6CF84
:102C70008D919C9198012E5F3F4F820F931F209161
:102C8000BB083091BC082817390769F4309729F43C
:102C90001092BE081092BD0802C0138212821093D7
:102CA000BC080093BB08DF91CF911F910F9108954D
:102CB000DB018F939F930E949E16BF91AF91A29FBD
:102CC000800D911DA39F900DB29F900D112408952A
:102CD00097FB072E16F4009407D077FD09D00E94C9
:102CE000E01607FC05D03EF4909581959F4F08951E
:102CF000709561957F4F0895A1E21A2EAA1BBB1B08
:102D0000FD010DC0AA1FBB1FEE1FFF1FA217B307B7
:102D1000E407F50720F0A21BB30BE40BF50B661FCD
:102D2000771F881F991F1A9469F760957095809591
:102D300090959B01AC01BD01CF0108950E94FA1648
:102D4000A59F900DB49F900DA49F800D911D1124FF
:102D500008952F923F924F925F926F927F928F923F
:102D60009F92AF92BF92CF92DF92EF92FF920F931A
:102D70001F93CF93DF93CDB7DEB7CA1BDB0B0FB624
:102D8000F894DEBF0FBECDBF09942A8839884888E1
:102D90005F846E847D848C849B84AA84B984C88477
:102DA000DF80EE80FD800C811B81AA81B981CE0F6E
:102DB000D11D0FB6F894DEBF0FBECDBFED01089553
:102DC000AA1BBB1B51E107C0AA1FBB1FA617B70751
:102DD00010F0A61BB70B881F991F5A95A9F780956D
:102DE0009095BC01CD010895EE0FFF1F0590F49161
:102DF000E02D0994A29FB001B39FC001A39F700D65
:102E0000811D1124911DB29F700D811D1124911DF2
:102E10000895FB01DC0102C001900D924150504029
:082E2000D8F70895F894FFCFE4
:102E280068656C6C6F20776F726C6421000101001B
:102E3800E10000000000000000BF08800073746417
:102E48005F6D7367732F54696D650063643731363E
:102E580036633734633535326333313166626363E1
:102E6800326665356137626332383900726F737361
:102E7800657269616C5F6D7367732F546F706963F6
:102E8800496E666F00306164353166383866633480
:102E9800343839326638633130363834303737367B
:102EA800343630303500726F7373657269616C5FE8
:102EB8006D7367732F4C6F6700313161626437330C
:102EC800316332353933333236316364363138332E
:102ED80062643132643632393500396630653938E2
:102EE8006264613635393831393836646466353369
:102EF80061666137613430653439007374645F6DBD
:102F08007367732F537472696E670039393263655A
:102F18003861313638376365633863386264383806
:102F28003365633733636134316431004D657373DE
:102F38006167652066726F6D2064657669636520D8
:102F480064726F707065643A206D6573736167654C
:102F5800206C6172676572207468616E20627566A4
:102F68006665722E006368617474657200726F73AF
:102F780073657269616C5F6D7367732F52657175E4
:102F8800657374506172616D000000000058017C27
:102F980001C201C50100000000F203DA04C801CB38
:102FA8000100000000C8039904CE01D1010000000F
:102FB80000FC02A505D401D70100000000D3022BB4
:102FC80007DA01DD0100000000E5011609E0010053
:102FD800000000400CBF0DE90B150CF90B350C0077
:102FE800000000ED12BF0D5C13C6130914000000A9
:102FF800009314BF0D221446142F148F1469140063
:00000001FF
